{
  "contractName": "carRegistrationContract",
  "abi": [
    {
      "constant": true,
      "inputs": [
        {
          "name": "",
          "type": "address"
        }
      ],
      "name": "Users",
      "outputs": [
        {
          "name": "userId",
          "type": "address"
        },
        {
          "name": "money",
          "type": "uint256"
        }
      ],
      "payable": false,
      "stateMutability": "view",
      "type": "function",
      "signature": "0x99b956a0"
    },
    {
      "constant": true,
      "inputs": [
        {
          "name": "key",
          "type": "string"
        }
      ],
      "name": "getOffers",
      "outputs": [
        {
          "components": [
            {
              "name": "buyerId",
              "type": "address"
            },
            {
              "name": "offerAmount",
              "type": "uint256"
            }
          ],
          "name": "_offers",
          "type": "tuple[]"
        }
      ],
      "payable": false,
      "stateMutability": "view",
      "type": "function",
      "signature": "0x7acaaf6b"
    },
    {
      "constant": true,
      "inputs": [
        {
          "name": "userId",
          "type": "string"
        }
      ],
      "name": "getOwner",
      "outputs": [
        {
          "name": "_userId",
          "type": "address"
        }
      ],
      "payable": false,
      "stateMutability": "view",
      "type": "function",
      "signature": "0x4aaf4a12"
    },
    {
      "constant": true,
      "inputs": [
        {
          "name": "userId",
          "type": "address"
        }
      ],
      "name": "getUserRegistrations",
      "outputs": [
        {
          "name": "reg",
          "type": "string[]"
        }
      ],
      "payable": false,
      "stateMutability": "view",
      "type": "function",
      "signature": "0x755c6052"
    },
    {
      "constant": false,
      "inputs": [
        {
          "name": "userId",
          "type": "address"
        },
        {
          "name": "registrationId",
          "type": "string"
        }
      ],
      "name": "assignRegistration",
      "outputs": [],
      "payable": false,
      "stateMutability": "nonpayable",
      "type": "function",
      "signature": "0xf78dc383"
    },
    {
      "constant": false,
      "inputs": [
        {
          "name": "money",
          "type": "uint256"
        }
      ],
      "name": "createUser",
      "outputs": [
        {
          "name": "success",
          "type": "bool"
        }
      ],
      "payable": false,
      "stateMutability": "nonpayable",
      "type": "function",
      "signature": "0xffbdff66"
    },
    {
      "constant": false,
      "inputs": [
        {
          "name": "_registrationId",
          "type": "string"
        }
      ],
      "name": "createSalesPost",
      "outputs": [
        {
          "name": "success",
          "type": "bool"
        }
      ],
      "payable": false,
      "stateMutability": "nonpayable",
      "type": "function",
      "signature": "0x5b5d030c"
    },
    {
      "constant": false,
      "inputs": [
        {
          "name": "_salesPosting",
          "type": "string"
        },
        {
          "name": "_offerPrice",
          "type": "uint256"
        }
      ],
      "name": "makeOffer",
      "outputs": [
        {
          "name": "sucess",
          "type": "bool"
        }
      ],
      "payable": false,
      "stateMutability": "nonpayable",
      "type": "function",
      "signature": "0x87efb1ef"
    },
    {
      "constant": false,
      "inputs": [
        {
          "name": "_buyerId",
          "type": "address"
        },
        {
          "name": "_salesPostingId",
          "type": "string"
        }
      ],
      "name": "acceptOffer",
      "outputs": [
        {
          "name": "success",
          "type": "bool"
        }
      ],
      "payable": false,
      "stateMutability": "nonpayable",
      "type": "function",
      "signature": "0xf43e9c13"
    }
  ],
  "bytecode": "0x608060405234801561001057600080fd5b5061206b806100206000396000f3fe608060405260043610610099576000357c0100000000000000000000000000000000000000000000000000000000900463ffffffff1680634aaf4a121461009e5780635b5d030c146100db578063755c6052146101185780637acaaf6b1461015557806387efb1ef1461019257806399b956a0146101cf578063f43e9c131461020d578063f78dc3831461024a578063ffbdff6614610273575b600080fd5b3480156100aa57600080fd5b506100c560048036036100c09190810190611c10565b6102b0565b6040516100d29190611e29565b60405180910390f35b3480156100e757600080fd5b5061010260048036036100fd9190810190611c10565b610348565b60405161010f9190611eb1565b60405180910390f35b34801561012457600080fd5b5061013f600480360361013a9190810190611b93565b610707565b60405161014c9190611e6d565b60405180910390f35b34801561016157600080fd5b5061017c60048036036101779190810190611c10565b610a2f565b6040516101899190611e8f565b60405180910390f35b34801561019e57600080fd5b506101b960048036036101b49190810190611c51565b610c11565b6040516101c69190611eb1565b60405180910390f35b3480156101db57600080fd5b506101f660048036036101f19190810190611b93565b610d5c565b604051610204929190611e44565b60405180910390f35b34801561021957600080fd5b50610234600480360361022f9190810190611bbc565b610da0565b6040516102419190611eb1565b60405180910390f35b34801561025657600080fd5b50610271600480360361026c9190810190611bbc565b6115d1565b005b34801561027f57600080fd5b5061029a60048036036102959190810190611ca5565b6117a4565b6040516102a79190611eb1565b60405180910390f35b60006001826040518082805190602001908083835b6020831015156102ea57805182526020820191506020810190506020830392506102c5565b6001836020036101000a038019825116818451168082178552505050505050905001915050908152602001604051809103902060000160009054906101000a900473ffffffffffffffffffffffffffffffffffffffff169050919050565b6000806000803373ffffffffffffffffffffffffffffffffffffffff1673ffffffffffffffffffffffffffffffffffffffff16815260200190815260200160002090503373ffffffffffffffffffffffffffffffffffffffff166001846040518082805190602001908083835b6020831015156103da57805182526020820191506020810190506020830392506103b5565b6001836020036101000a038019825116818451168082178552505050505050905001915050908152602001604051809103902060000160009054906101000a900473ffffffffffffffffffffffffffffffffffffffff1673ffffffffffffffffffffffffffffffffffffffff1614156106fc578281600201846040518082805190602001908083835b6020831015156104885780518252602082019150602081019050602083039250610463565b6001836020036101000a038019825116818451168082178552505050505050905001915050908152602001604051809103902060000190805190602001906104d1929190611875565b503381600201846040518082805190602001908083835b60208310151561050d57805182526020820191506020810190506020830392506104e8565b6001836020036101000a038019825116818451168082178552505050505050905001915050908152602001604051809103902060010160006101000a81548173ffffffffffffffffffffffffffffffffffffffff021916908373ffffffffffffffffffffffffffffffffffffffff160217905550806003018390806001815401808255809150509060018203906000526020600020016000909192909190915090805190602001906105c0929190611875565b5050826002846040518082805190602001908083835b6020831015156105fb57805182526020820191506020810190506020830392506105d6565b6001836020036101000a03801982511681845116808217855250505050505090500191505090815260200160405180910390206000019080519060200190610644929190611875565b50336002846040518082805190602001908083835b60208310151561067e5780518252602082019150602081019050602083039250610659565b6001836020036101000a038019825116818451168082178552505050505050905001915050908152602001604051809103902060010160006101000a81548173ffffffffffffffffffffffffffffffffffffffff021916908373ffffffffffffffffffffffffffffffffffffffff1602179055506001915050610702565b60009150505b919050565b60606107116118f5565b6000808473ffffffffffffffffffffffffffffffffffffffff1673ffffffffffffffffffffffffffffffffffffffff168152602001908152602001600020608060405190810160405290816000820160009054906101000a900473ffffffffffffffffffffffffffffffffffffffff1673ffffffffffffffffffffffffffffffffffffffff1673ffffffffffffffffffffffffffffffffffffffff16815260200160018201805480602002602001604051908101604052809291908181526020016000905b82821015610892578382906000526020600020018054600181600116156101000203166002900480601f01602080910402602001604051908101604052809291908181526020018280546001816001161561010002031660029004801561087e5780601f106108535761010080835404028352916020019161087e565b820191906000526020600020905b81548152906001019060200180831161086157829003601f168201915b5050505050815260200190600101906107d6565b50505050815260200160038201805480602002602001604051908101604052809291908181526020016000905b8282101561097b578382906000526020600020018054600181600116156101000203166002900480601f0160208091040260200160405190810160405280929190818152602001828054600181600116156101000203166002900480156109675780601f1061093c57610100808354040283529160200191610967565b820191906000526020600020905b81548152906001019060200180831161094a57829003601f168201915b5050505050815260200190600101906108bf565b505050508152602001600482015481525050905060608160200151516040519080825280602002602001820160405280156109ca57816020015b60608152602001906001900390816109b55790505b50905060008090505b826020015151811015610a24578260200151818151811015156109f257fe5b906020019060200201518282815181101515610a0a57fe5b9060200190602002018190525080806001019150506109d3565b508092505050919050565b606060006002836040518082805190602001908083835b602083101515610a6b5780518252602082019150602081019050602083039250610a46565b6001836020036101000a0380198251168184511680821785525050505050509050019150509081526020016040518091039020600301805490509050606081604051908082528060200260200182016040528015610ae357816020015b610ad0611934565b815260200190600190039081610ac85790505b50905060008090505b82811015610c06576002856040518082805190602001908083835b602083101515610b2c5780518252602082019150602081019050602083039250610b07565b6001836020036101000a038019825116818451168082178552505050505050905001915050908152602001604051809103902060020160008281526020019081526020016000206040805190810160405290816000820160009054906101000a900473ffffffffffffffffffffffffffffffffffffffff1673ffffffffffffffffffffffffffffffffffffffff1673ffffffffffffffffffffffffffffffffffffffff1681526020016001820154815250508282815181101515610bec57fe5b906020019060200201819052508080600101915050610aec565b508092505050919050565b6000806002846040518082805190602001908083835b602083101515610c4c5780518252602082019150602081019050602083039250610c27565b6001836020036101000a0380198251168184511680821785525050505050509050019150509081526020016040518091039020905060408051908101604052803373ffffffffffffffffffffffffffffffffffffffff168152602001848152508160020160008360030180549050815260200190815260200160002060008201518160000160006101000a81548173ffffffffffffffffffffffffffffffffffffffff021916908373ffffffffffffffffffffffffffffffffffffffff160217905550602082015181600101559050508060030181600301805490509080600181540180825580915050906001820390600052602060002001600090919290919091505550600191505092915050565b60006020528060005260406000206000915090508060000160009054906101000a900473ffffffffffffffffffffffffffffffffffffffff16908060040154905082565b6000806000803373ffffffffffffffffffffffffffffffffffffffff1673ffffffffffffffffffffffffffffffffffffffff168152602001908152602001600020905060008060008673ffffffffffffffffffffffffffffffffffffffff1673ffffffffffffffffffffffffffffffffffffffff16815260200190815260200160002090503373ffffffffffffffffffffffffffffffffffffffff166001856040518082805190602001908083835b602083101515610e745780518252602082019150602081019050602083039250610e4f565b6001836020036101000a038019825116818451168082178552505050505050905001915050908152602001604051809103902060000160009054906101000a900473ffffffffffffffffffffffffffffffffffffffff1673ffffffffffffffffffffffffffffffffffffffff1614156115c45760008090505b82600301805490508110156115c257600060028460030183815481101515610f1157fe5b906000526020600020016040518082805460018160011615610100020316600290048015610f765780601f10610f54576101008083540402835291820191610f76565b820191906000526020600020905b815481529060010190602001808311610f62575b505091505090815260200160405180910390209050856040516020018082805190602001908083835b602083101515610fc45780518252602082019150602081019050602083039250610f9f565b6001836020036101000a038019825116818451168082178552505050505050905001915050604051602081830303815290604052805190602001208160000160405160200180828054600181600116156101000203166002900480156110615780601f1061103f576101008083540402835291820191611061565b820191906000526020600020905b81548152906001019060200180831161104d575b50509150506040516020818303038152906040528051906020012014156115b45760008090505b81600301805490508110156115b257600082600201600084600301848154811015156110b057fe5b9060005260206000200154815260200190815260200160002090508873ffffffffffffffffffffffffffffffffffffffff168160000160009054906101000a900473ffffffffffffffffffffffffffffffffffffffff1673ffffffffffffffffffffffffffffffffffffffff1614156115a4576000816001015490508086600401600082825403925050819055508087600401600082825401925050819055508560018a6040518082805190602001908083835b6020831015156111895780518252602082019150602081019050602083039250611164565b6001836020036101000a03801982511681845116808217855250505050505090500191505090815260200160405180910390206000820160009054906101000a900473ffffffffffffffffffffffffffffffffffffffff168160000160006101000a81548173ffffffffffffffffffffffffffffffffffffffff021916908373ffffffffffffffffffffffffffffffffffffffff1602179055506001820181600101908054611239929190611964565b506003820181600301908054611250929190611964565b50600482015481600401559050508560010189908060018154018082558091505090600182039060005260206000200160009091929091909150908051906020019061129d929190611875565b505060008090505b87600101805490508110156113f757896040516020018082805190602001908083835b6020831015156112ed57805182526020820191506020810190506020830392506112c8565b6001836020036101000a03801982511681845116808217855250505050505090500191505060405160208183030381529060405280519060200120886001018281548110151561133957fe5b9060005260206000200160405160200180828054600181600116156101000203166002900480156113a15780601f1061137f5761010080835404028352918201916113a1565b820191906000526020600020905b81548152906001019060200180831161138d575b50509150506040516020818303038152906040528051906020012014156113ea5787600101818154811015156113d357fe5b9060005260206000200160006113e991906119d4565b5b80806001019150506112a5565b508660020184600001604051808280546001816001161561010002031660029004801561145b5780601f1061143957610100808354040283529182019161145b565b820191906000526020600020905b815481529060010190602001808311611447575b505091505090815260200160405180910390206000808201600061147f91906119d4565b6001820160006101000a81549073ffffffffffffffffffffffffffffffffffffffff02191690556003820160006114b69190611a1c565b505086600301858154811015156114c957fe5b9060005260206000200160006114df91906119d4565b6002896040518082805190602001908083835b60208310151561151757805182526020820191506020810190506020830392506114f2565b6001836020036101000a03801982511681845116808217855250505050505090500191505090815260200160405180910390206000808201600061155b91906119d4565b6001820160006101000a81549073ffffffffffffffffffffffffffffffffffffffff02191690556003820160006115929190611a1c565b505060019750505050505050506115cb565b508080600101915050611088565b505b508080600101915050610eed565b505b6000925050505b92915050565b6000808373ffffffffffffffffffffffffffffffffffffffff1673ffffffffffffffffffffffffffffffffffffffff1681526020019081526020016000206001826040518082805190602001908083835b6020831015156116475780518252602082019150602081019050602083039250611622565b6001836020036101000a03801982511681845116808217855250505050505090500191505090815260200160405180910390206000820160009054906101000a900473ffffffffffffffffffffffffffffffffffffffff168160000160006101000a81548173ffffffffffffffffffffffffffffffffffffffff021916908373ffffffffffffffffffffffffffffffffffffffff16021790555060018201816001019080546116f7929190611964565b50600382018160030190805461170e929190611964565b506004820154816004015590505060008060008473ffffffffffffffffffffffffffffffffffffffff1673ffffffffffffffffffffffffffffffffffffffff16815260200190815260200160002090508060010182908060018154018082558091505090600182039060005260206000200160009091929091909150908051906020019061179d929190611875565b5050505050565b6000336000803373ffffffffffffffffffffffffffffffffffffffff1673ffffffffffffffffffffffffffffffffffffffff16815260200190815260200160002060000160006101000a81548173ffffffffffffffffffffffffffffffffffffffff021916908373ffffffffffffffffffffffffffffffffffffffff160217905550816000803373ffffffffffffffffffffffffffffffffffffffff1673ffffffffffffffffffffffffffffffffffffffff1681526020019081526020016000206004018190555060019050919050565b828054600181600116156101000203166002900490600052602060002090601f016020900481019282601f106118b657805160ff19168380011785556118e4565b828001600101855582156118e4579182015b828111156118e35782518255916020019190600101906118c8565b5b5090506118f19190611a3d565b5090565b608060405190810160405280600073ffffffffffffffffffffffffffffffffffffffff1681526020016060815260200160608152602001600081525090565b6040805190810160405280600073ffffffffffffffffffffffffffffffffffffffff168152602001600081525090565b8280548282559060005260206000209081019282156119c35760005260206000209182015b828111156119c257828290805460018160011615610100020316600290046119b2929190611a62565b5091600101919060010190611989565b5b5090506119d09190611ae9565b5090565b50805460018160011615610100020316600290046000825580601f106119fa5750611a19565b601f016020900490600052602060002090810190611a189190611a3d565b5b50565b5080546000825590600052602060002090810190611a3a9190611a3d565b50565b611a5f91905b80821115611a5b576000816000905550600101611a43565b5090565b90565b828054600181600116156101000203166002900490600052602060002090601f016020900481019282601f10611a9b5780548555611ad8565b82800160010185558215611ad857600052602060002091601f016020900482015b82811115611ad7578254825591600101919060010190611abc565b5b509050611ae59190611a3d565b5090565b611b1291905b80821115611b0e5760008181611b0591906119d4565b50600101611aef565b5090565b90565b6000611b218235611fc2565b905092915050565b600082601f8301121515611b3c57600080fd5b8135611b4f611b4a82611ef9565b611ecc565b91508082526020830160208301858383011115611b6b57600080fd5b611b76838284611fde565b50505092915050565b6000611b8b8235611fd4565b905092915050565b600060208284031215611ba557600080fd5b6000611bb384828501611b15565b91505092915050565b60008060408385031215611bcf57600080fd5b6000611bdd85828601611b15565b925050602083013567ffffffffffffffff811115611bfa57600080fd5b611c0685828601611b29565b9150509250929050565b600060208284031215611c2257600080fd5b600082013567ffffffffffffffff811115611c3c57600080fd5b611c4884828501611b29565b91505092915050565b60008060408385031215611c6457600080fd5b600083013567ffffffffffffffff811115611c7e57600080fd5b611c8a85828601611b29565b9250506020611c9b85828601611b7f565b9150509250929050565b600060208284031215611cb757600080fd5b6000611cc584828501611b7f565b91505092915050565b611cd781611f7a565b82525050565b6000611ce882611f3f565b80845260208401935083602082028501611d0185611f25565b60005b84811015611d3a578383038852611d1c838351611db5565b9250611d2782611f60565b9150602088019750600181019050611d04565b508196508694505050505092915050565b6000611d5682611f4a565b808452602084019350611d6883611f32565b60005b82811015611d9a57611d7e868351611deb565b611d8782611f6d565b9150604086019550600181019050611d6b565b50849250505092915050565b611daf81611f8c565b82525050565b6000611dc082611f55565b808452611dd4816020860160208601611fed565b611ddd81612020565b602085010191505092915050565b604082016000820151611e016000850182611cce565b506020820151611e146020850182611e1a565b50505050565b611e2381611fb8565b82525050565b6000602082019050611e3e6000830184611cce565b92915050565b6000604082019050611e596000830185611cce565b611e666020830184611e1a565b9392505050565b60006020820190508181036000830152611e878184611cdd565b905092915050565b60006020820190508181036000830152611ea98184611d4b565b905092915050565b6000602082019050611ec66000830184611da6565b92915050565b6000604051905081810181811067ffffffffffffffff82111715611eef57600080fd5b8060405250919050565b600067ffffffffffffffff821115611f1057600080fd5b601f19601f8301169050602081019050919050565b6000602082019050919050565b6000602082019050919050565b600081519050919050565b600081519050919050565b600081519050919050565b6000602082019050919050565b6000602082019050919050565b6000611f8582611f98565b9050919050565b60008115159050919050565b600073ffffffffffffffffffffffffffffffffffffffff82169050919050565b6000819050919050565b6000611fcd82611f98565b9050919050565b6000819050919050565b82818337600083830152505050565b60005b8381101561200b578082015181840152602081019050611ff0565b8381111561201a576000848401525b50505050565b6000601f19601f830116905091905056fea265627a7a7230582062181981c12f14550db4bdbd6f8f6c100b3245c08c78a0d7884f1428644b42886c6578706572696d656e74616cf50037",
  "source": "pragma solidity ^0.5.0;\r\n\r\n// Enable the ABI v2 Coder\r\npragma experimental ABIEncoderV2;\r\n\r\ncontract carRegistrationContract {\r\n\r\n    mapping (address => User) public Users;\r\n    mapping (string => User) private Owners;\r\n    mapping (string => SalesPosting) private SalesPostings;\r\n\r\n\r\n    function getOffers(string memory key) public view returns(Offer[] memory _offers) {\r\n        uint offerLength = SalesPostings[key].offerKeys.length;\r\n        Offer[] memory o = new Offer[](offerLength);\r\n        for(uint i = 0; i<offerLength; i++) {\r\n            o[i] = SalesPostings[key].offers[i];\r\n        }\r\n        return o;\r\n    }\r\n\r\n    function getOwner(string memory userId) public view returns(address _userId) {\r\n        return Owners[userId].userId;\r\n    }\r\n\r\n    struct User {\r\n        address userId;\r\n        string[] registrations;\r\n        mapping(string => SalesPosting) salesPostings;\r\n        string[] salesPostingKeys;\r\n        uint money;\r\n    }\r\n\r\n    struct SalesPosting {\r\n        string id;\r\n        address userId;\r\n        mapping(uint => Offer) offers;\r\n        uint[] offerKeys;\r\n    }\r\n\r\n    struct Offer {\r\n        address buyerId;\r\n        uint offerAmount;\r\n    }\r\n\r\n\r\n    function getUserRegistrations(address userId) public view returns (string[] memory reg) {\r\n        User memory user = Users[userId];\r\n        string[] memory registrations = new string[](user.registrations.length);\r\n        for(uint i = 0; i<user.registrations.length; i++) {\r\n            registrations[i] = user.registrations[i];\r\n        }\r\n        return registrations;\r\n    }\r\n\r\n    function assignRegistration(address userId, string memory registrationId) public {\r\n        Owners[registrationId] = Users[userId]; //check for already exist here\r\n        User storage u = Users[userId];\r\n        u.registrations.push(registrationId);\r\n    }\r\n\r\n    function createUser(uint money) public returns (bool success) {\r\n        Users[msg.sender].userId = msg.sender;\r\n        Users[msg.sender].money = money;\r\n        return true;\r\n    }\r\n\r\n    function createSalesPost(string memory _registrationId) public returns (bool success) {\r\n        User storage user = Users[msg.sender];\r\n        if(Owners[_registrationId].userId==msg.sender)  { //check if sender is owner\r\n            user.salesPostings[_registrationId].id = _registrationId;\r\n            user.salesPostings[_registrationId].userId = msg.sender;\r\n            user.salesPostingKeys.push(_registrationId);  \r\n            SalesPostings[_registrationId].id = _registrationId;\r\n            SalesPostings[_registrationId].userId = msg.sender;\r\n\r\n            return true;\r\n        }\r\n        \r\n        return false;\r\n    }\r\n\r\n    function makeOffer(string memory _salesPosting, uint _offerPrice) public returns (bool sucess) {\r\n        SalesPosting storage posting = SalesPostings[_salesPosting];\r\n        posting.offers[posting.offerKeys.length] = Offer(msg.sender, _offerPrice);\r\n        posting.offerKeys.push(posting.offerKeys.length);\r\n        \r\n        return true;\r\n    }\r\n\r\n    //only one offer pr. user pr. salesposting right now \r\n    function acceptOffer(address _buyerId, string memory _salesPostingId) public returns (bool success) { \r\n        User storage seller = Users[msg.sender];\r\n        User storage buyer = Users[_buyerId];\r\n\r\n            //check if sender is owner of registration \r\n        if(Owners[_salesPostingId].userId == msg.sender) {\r\n                   \r\n            for(uint j = 0; j<seller.salesPostingKeys.length; j++) {\r\n                SalesPosting storage sellerSalesPosting = SalesPostings[seller.salesPostingKeys[j]];                   \r\n                if(keccak256(abi.encodePacked(sellerSalesPosting.id)) == keccak256(abi.encodePacked(_salesPostingId))) { //check is sender has registration up for sale\r\n                    for(uint k = 0; k<sellerSalesPosting.offerKeys.length; k++) {\r\n                        Offer storage offer = sellerSalesPosting.offers[sellerSalesPosting.offerKeys[k]];                          \r\n                        if(offer.buyerId==_buyerId) { //find the correct offer                           \r\n                            uint finalPrice = offer.offerAmount;\r\n                            buyer.money -= finalPrice; //remove money from buyer\r\n                            seller.money += finalPrice; //add money to seller\r\n                            Owners[_salesPostingId] = buyer;\r\n                            buyer.registrations.push(_salesPostingId); //transfer registration to buyer\r\n                            for(uint i = 0; i<seller.registrations.length; i++) {\r\n                                if(keccak256(abi.encodePacked(seller.registrations[i])) == keccak256(abi.encodePacked(_salesPostingId))) {\r\n                                    delete seller.registrations[i]; //delete registration for seller\r\n                                }\r\n                            }\r\n                            delete seller.salesPostings[sellerSalesPosting.id]; //delete salesPosting\r\n                            delete seller.salesPostingKeys[j];\r\n                            //salesPostingsLength--;\r\n                            delete SalesPostings[_salesPostingId];\r\n\r\n                            return true;\r\n                            \r\n                        }\r\n                    }\r\n                }                \r\n            }\r\n        }\r\n        return false;\r\n    }\r\n\r\n\r\n\r\n\r\n}",
  "sourcePath": "C:/AssetManagement/BlockChain and UI/contracts/CarRegistrationContract.sol",
  "compiler": {
    "name": "solc",
    "version": "0.5.0+commit.1d4f565a.Emscripten.clang"
  },
  "schemaVersion": "3.0.2",
  "updatedAt": "2019-03-22T14:02:11.904Z",
  "devdoc": {
    "methods": {}
  },
  "userdoc": {
    "methods": {}
  }
}