{
  "contractName": "carRegistrationContract",
  "abi": [
    {
      "constant": true,
      "inputs": [
        {
          "name": "",
          "type": "address"
        }
      ],
      "name": "Users",
      "outputs": [
        {
          "name": "userId",
          "type": "address"
        },
        {
          "name": "registrationsLength",
          "type": "uint256"
        },
        {
          "name": "salesPostingsLength",
          "type": "uint256"
        },
        {
          "name": "money",
          "type": "uint256"
        }
      ],
      "payable": false,
      "stateMutability": "view",
      "type": "function",
      "signature": "0x99b956a0"
    },
    {
      "constant": true,
      "inputs": [
        {
          "name": "key",
          "type": "string"
        }
      ],
      "name": "getRegistration",
      "outputs": [
        {
          "components": [
            {
              "name": "registrationNumber",
              "type": "string"
            },
            {
              "name": "VIN",
              "type": "string"
            },
            {
              "name": "allowedTotalWeight",
              "type": "int256"
            },
            {
              "name": "fuel",
              "type": "int256"
            },
            {
              "name": "fuelConsumption",
              "type": "int256"
            },
            {
              "name": "amountOfSeats",
              "type": "int256"
            }
          ],
          "name": "r",
          "type": "tuple"
        }
      ],
      "payable": false,
      "stateMutability": "view",
      "type": "function",
      "signature": "0x483b812c"
    },
    {
      "constant": false,
      "inputs": [
        {
          "name": "key",
          "type": "string"
        },
        {
          "components": [
            {
              "name": "registrationNumber",
              "type": "string"
            },
            {
              "name": "VIN",
              "type": "string"
            },
            {
              "name": "allowedTotalWeight",
              "type": "int256"
            },
            {
              "name": "fuel",
              "type": "int256"
            },
            {
              "name": "fuelConsumption",
              "type": "int256"
            },
            {
              "name": "amountOfSeats",
              "type": "int256"
            }
          ],
          "name": "_reg",
          "type": "tuple"
        }
      ],
      "name": "setRegistration",
      "outputs": [],
      "payable": false,
      "stateMutability": "nonpayable",
      "type": "function",
      "signature": "0x8b60859b"
    },
    {
      "constant": true,
      "inputs": [
        {
          "name": "key",
          "type": "string"
        }
      ],
      "name": "getSalesPostingId",
      "outputs": [
        {
          "name": "r",
          "type": "string"
        }
      ],
      "payable": false,
      "stateMutability": "view",
      "type": "function",
      "signature": "0x5de4e814"
    },
    {
      "constant": true,
      "inputs": [
        {
          "name": "key",
          "type": "string"
        }
      ],
      "name": "test",
      "outputs": [
        {
          "components": [
            {
              "name": "buyerId",
              "type": "address"
            },
            {
              "name": "offerAmount",
              "type": "uint256"
            }
          ],
          "name": "_offers",
          "type": "tuple[]"
        }
      ],
      "payable": false,
      "stateMutability": "view",
      "type": "function",
      "signature": "0xf9fbd554"
    },
    {
      "constant": true,
      "inputs": [
        {
          "name": "salesPostingId",
          "type": "string"
        },
        {
          "name": "offerIndex",
          "type": "uint256"
        }
      ],
      "name": "getSalesPostingOffer",
      "outputs": [
        {
          "components": [
            {
              "name": "buyerId",
              "type": "address"
            },
            {
              "name": "offerAmount",
              "type": "uint256"
            }
          ],
          "name": "reg",
          "type": "tuple"
        }
      ],
      "payable": false,
      "stateMutability": "view",
      "type": "function",
      "signature": "0x60a471a9"
    },
    {
      "constant": true,
      "inputs": [
        {
          "name": "user",
          "type": "address"
        },
        {
          "name": "index",
          "type": "uint256"
        }
      ],
      "name": "getUserRegistration",
      "outputs": [
        {
          "components": [
            {
              "name": "registrationNumber",
              "type": "string"
            },
            {
              "name": "VIN",
              "type": "string"
            },
            {
              "name": "allowedTotalWeight",
              "type": "int256"
            },
            {
              "name": "fuel",
              "type": "int256"
            },
            {
              "name": "fuelConsumption",
              "type": "int256"
            },
            {
              "name": "amountOfSeats",
              "type": "int256"
            }
          ],
          "name": "reg",
          "type": "tuple"
        }
      ],
      "payable": false,
      "stateMutability": "view",
      "type": "function",
      "signature": "0xb404d159"
    },
    {
      "constant": false,
      "inputs": [
        {
          "name": "registrationNumber",
          "type": "string"
        },
        {
          "name": "VIN",
          "type": "string"
        },
        {
          "name": "awt",
          "type": "int256"
        },
        {
          "name": "fuel",
          "type": "int256"
        },
        {
          "name": "fc",
          "type": "int256"
        },
        {
          "name": "ass",
          "type": "int256"
        }
      ],
      "name": "createRegistration",
      "outputs": [],
      "payable": false,
      "stateMutability": "nonpayable",
      "type": "function",
      "signature": "0x8a52353c"
    },
    {
      "constant": false,
      "inputs": [
        {
          "name": "user",
          "type": "address"
        },
        {
          "name": "_VIN",
          "type": "string"
        }
      ],
      "name": "assignRegistration",
      "outputs": [],
      "payable": false,
      "stateMutability": "nonpayable",
      "type": "function",
      "signature": "0xf78dc383"
    },
    {
      "constant": false,
      "inputs": [
        {
          "name": "money",
          "type": "uint256"
        }
      ],
      "name": "createUser",
      "outputs": [
        {
          "name": "success",
          "type": "bool"
        }
      ],
      "payable": false,
      "stateMutability": "nonpayable",
      "type": "function",
      "signature": "0xffbdff66"
    },
    {
      "constant": false,
      "inputs": [
        {
          "name": "_registration",
          "type": "string"
        },
        {
          "name": "_sellingPrice",
          "type": "uint256"
        }
      ],
      "name": "createSalesPost",
      "outputs": [
        {
          "name": "success",
          "type": "bool"
        }
      ],
      "payable": false,
      "stateMutability": "nonpayable",
      "type": "function",
      "signature": "0x456dc00a"
    },
    {
      "constant": false,
      "inputs": [
        {
          "name": "_salesPosting",
          "type": "string"
        },
        {
          "name": "_offerPrice",
          "type": "uint256"
        }
      ],
      "name": "makeOffer",
      "outputs": [
        {
          "name": "sucess",
          "type": "bool"
        }
      ],
      "payable": false,
      "stateMutability": "nonpayable",
      "type": "function",
      "signature": "0x87efb1ef"
    },
    {
      "constant": false,
      "inputs": [
        {
          "name": "_buyerId",
          "type": "address"
        },
        {
          "name": "_salesPosting",
          "type": "string"
        }
      ],
      "name": "acceptOffer",
      "outputs": [
        {
          "name": "success",
          "type": "bool"
        }
      ],
      "payable": false,
      "stateMutability": "nonpayable",
      "type": "function",
      "signature": "0xf43e9c13"
    }
  ],
  "bytecode": "0x608060405234801561001057600080fd5b50612272806100206000396000f3fe6080604052600436106100c5576000357c0100000000000000000000000000000000000000000000000000000000900463ffffffff168063456dc00a146100ca578063483b812c146101075780635de4e8141461014457806360a471a91461018157806387efb1ef146101be5780638a52353c146101fb5780638b60859b1461022457806399b956a01461024d578063b404d1591461028d578063f43e9c13146102ca578063f78dc38314610307578063f9fbd55414610330578063ffbdff661461036d575b600080fd5b3480156100d657600080fd5b506100f160048036036100ec9190810190611d5e565b6103aa565b6040516100fe9190612033565b60405180910390f35b34801561011357600080fd5b5061012e60048036036101299190810190611bf8565b6106f1565b60405161013b919061208b565b60405180910390f35b34801561015057600080fd5b5061016b60048036036101669190810190611bf8565b6108e3565b604051610178919061204e565b60405180910390f35b34801561018d57600080fd5b506101a860048036036101a39190810190611d5e565b6109f3565b6040516101b59190612070565b60405180910390f35b3480156101ca57600080fd5b506101e560048036036101e09190810190611d5e565b610aed565b6040516101f29190612033565b60405180910390f35b34801561020757600080fd5b50610222600480360361021d9190810190611c39565b610c14565b005b34801561023057600080fd5b5061024b60048036036102469190810190611cf2565b610c53565b005b34801561025957600080fd5b50610274600480360361026f9190810190611b3f565b610d28565b6040516102849493929190611fcc565b60405180910390f35b34801561029957600080fd5b506102b460048036036102af9190810190611bbc565b610d78565b6040516102c1919061208b565b60405180910390f35b3480156102d657600080fd5b506102f160048036036102ec9190810190611b68565b610f52565b6040516102fe9190612033565b60405180910390f35b34801561031357600080fd5b5061032e60048036036103299190810190611b68565b6113d4565b005b34801561033c57600080fd5b5061035760048036036103529190810190611bf8565b6114b6565b6040516103649190612011565b60405180910390f35b34801561037957600080fd5b50610394600480360361038f9190810190611db2565b611695565b6040516103a19190612033565b60405180910390f35b6000806000803373ffffffffffffffffffffffffffffffffffffffff1673ffffffffffffffffffffffffffffffffffffffff168152602001908152602001600020905060008090505b81600201548110156106e45760608260010160008381526020019081526020016000206001018054600181600116156101000203166002900480601f0160208091040260200160405190810160405280929190818152602001828054600181600116156101000203166002900480156104ad5780601f10610482576101008083540402835291602001916104ad565b820191906000526020600020905b81548152906001019060200180831161049057829003601f168201915b505050505090508580519060200120818051906020012014156106d6576080604051908101604052808781526020018681526020013373ffffffffffffffffffffffffffffffffffffffff1681526020016000815250836003016000856004015481526020019081526020016000206000820151816000019080519060200190610538929190611780565b506020820151816001015560408201518160020160006101000a81548173ffffffffffffffffffffffffffffffffffffffff021916908373ffffffffffffffffffffffffffffffffffffffff1602179055506060820151816004015590505082600401600081548092919060010191905055506080604051908101604052808781526020018681526020013373ffffffffffffffffffffffffffffffffffffffff16815260200160008152506002876040518082805190602001908083835b60208310151561061c57805182526020820191506020810190506020830392506105f7565b6001836020036101000a0380198251168184511680821785525050505050509050019150509081526020016040518091039020600082015181600001908051906020019061066b929190611780565b506020820151816001015560408201518160020160006101000a81548173ffffffffffffffffffffffffffffffffffffffff021916908373ffffffffffffffffffffffffffffffffffffffff16021790555060608201518160040155905050600193505050506106eb565b5080806001019150506103f3565b5060009150505b92915050565b6106f9611800565b6001826040518082805190602001908083835b602083101515610731578051825260208201915060208101905060208303925061070c565b6001836020036101000a038019825116818451168082178552505050505050905001915050908152602001604051809103902060c06040519081016040529081600082018054600181600116156101000203166002900480601f0160208091040260200160405190810160405280929190818152602001828054600181600116156101000203166002900480156108095780601f106107de57610100808354040283529160200191610809565b820191906000526020600020905b8154815290600101906020018083116107ec57829003601f168201915b50505050508152602001600182018054600181600116156101000203166002900480601f0160208091040260200160405190810160405280929190818152602001828054600181600116156101000203166002900480156108ab5780601f10610880576101008083540402835291602001916108ab565b820191906000526020600020905b81548152906001019060200180831161088e57829003601f168201915b505050505081526020016002820154815260200160038201548152602001600482015481526020016005820154815250509050919050565b60606002826040518082805190602001908083835b60208310151561091d57805182526020820191506020810190506020830392506108f8565b6001836020036101000a03801982511681845116808217855250505050505090500191505090815260200160405180910390206000018054600181600116156101000203166002900480601f0160208091040260200160405190810160405280929190818152602001828054600181600116156101000203166002900480156109e75780601f106109bc576101008083540402835291602001916109e7565b820191906000526020600020905b8154815290600101906020018083116109ca57829003601f168201915b50505050509050919050565b6109fb611837565b6002836040518082805190602001908083835b602083101515610a335780518252602082019150602081019050602083039250610a0e565b6001836020036101000a038019825116818451168082178552505050505050905001915050908152602001604051809103902060030160008381526020019081526020016000206040805190810160405290816000820160009054906101000a900473ffffffffffffffffffffffffffffffffffffffff1673ffffffffffffffffffffffffffffffffffffffff1673ffffffffffffffffffffffffffffffffffffffff168152602001600182015481525050905092915050565b6000806002846040518082805190602001908083835b602083101515610b285780518252602082019150602081019050602083039250610b03565b6001836020036101000a0380198251168184511680821785525050505050509050019150509081526020016040518091039020905060408051908101604052803373ffffffffffffffffffffffffffffffffffffffff168152602001848152508160030160008360040154815260200190815260200160002060008201518160000160006101000a81548173ffffffffffffffffffffffffffffffffffffffff021916908373ffffffffffffffffffffffffffffffffffffffff160217905550602082015181600101559050508060040160008154809291906001019190505550600191505092915050565b610c4b8560c06040519081016040528089815260200188815260200187815260200186815260200185815260200184815250610c53565b505050505050565b806001836040518082805190602001908083835b602083101515610c8c5780518252602082019150602081019050602083039250610c67565b6001836020036101000a03801982511681845116808217855250505050505090500191505090815260200160405180910390206000820151816000019080519060200190610cdb929190611780565b506020820151816001019080519060200190610cf8929190611780565b5060408201518160020155606082015181600301556080820151816004015560a082015181600501559050505050565b60006020528060005260406000206000915090508060000160009054906101000a900473ffffffffffffffffffffffffffffffffffffffff16908060020154908060040154908060050154905084565b610d80611800565b6000808473ffffffffffffffffffffffffffffffffffffffff1673ffffffffffffffffffffffffffffffffffffffff168152602001908152602001600020600101600083815260200190815260200160002060c06040519081016040529081600082018054600181600116156101000203166002900480601f016020809104026020016040519081016040528092919081815260200182805460018160011615610100020316600290048015610e775780601f10610e4c57610100808354040283529160200191610e77565b820191906000526020600020905b815481529060010190602001808311610e5a57829003601f168201915b50505050508152602001600182018054600181600116156101000203166002900480601f016020809104026020016040519081016040528092919081815260200182805460018160011615610100020316600290048015610f195780601f10610eee57610100808354040283529160200191610f19565b820191906000526020600020905b815481529060010190602001808311610efc57829003601f168201915b50505050508152602001600282015481526020016003820154815260200160048201548152602001600582015481525050905092915050565b6000806000803373ffffffffffffffffffffffffffffffffffffffff1673ffffffffffffffffffffffffffffffffffffffff168152602001908152602001600020905060008060008673ffffffffffffffffffffffffffffffffffffffff1673ffffffffffffffffffffffffffffffffffffffff168152602001908152602001600020905060008090505b82600201548110156113c657848051906020012083600101600083815260200190815260200160002060010160405180828054600181600116156101000203166002900480156110645780601f10611042576101008083540402835291820191611064565b820191906000526020600020905b815481529060010190602001808311611050575b5050915050604051809103902014156113b95760008090505b83600401548110156113b757858051906020012084600301600083815260200190815260200160002060000160405180828054600181600116156101000203166002900480156111045780601f106110e2576101008083540402835291820191611104565b820191906000526020600020905b8154815290600101906020018083116110f0575b5050915050604051809103902014156113aa5760008090505b846003016000838152602001908152602001600020600401548110156113a8578773ffffffffffffffffffffffffffffffffffffffff16856003016000858152602001908152602001600020600301600083815260200190815260200160002060000160009054906101000a900473ffffffffffffffffffffffffffffffffffffffff1673ffffffffffffffffffffffffffffffffffffffff16141561139b57600085600301600085815260200190815260200160002060030160008381526020019081526020016000206001015490508085600501600082825403925050819055508086600501600082825401925050819055506000866001016000868152602001908152602001600020905080866001016000886002015481526020019081526020016000206000820181600001908054600181600116156101000203166002900461126c929190611867565b5060018201816001019080546001816001161561010002031660029004611294929190611867565b50600282015481600201556003820154816003015560048201548160040155600582015481600501559050508560020160008154809291906001019190505550866001016000868152602001908152602001600020600080820160006112fa91906118ee565b60018201600061130a91906118ee565b600282016000905560038201600090556004820160009055600582016000905550508660030160008581526020019081526020016000206000808201600061135291906118ee565b60018201600090556002820160006101000a81549073ffffffffffffffffffffffffffffffffffffffff02191690556004820160009055505060019750505050505050506113ce565b808060010191505061111d565b505b808060010191505061107d565b505b8080600101915050610fdd565b506000925050505b92915050565b60008060008473ffffffffffffffffffffffffffffffffffffffff1673ffffffffffffffffffffffffffffffffffffffff168152602001908152602001600020905061141f826106f1565b816001016000836002015481526020019081526020016000206000820151816000019080519060200190611454929190611780565b506020820151816001019080519060200190611471929190611780565b5060408201518160020155606082015181600301556080820151816004015560a082015181600501559050508060020160008154809291906001019190505550505050565b606060006002836040518082805190602001908083835b6020831015156114f257805182526020820191506020810190506020830392506114cd565b6001836020036101000a038019825116818451168082178552505050505050905001915050908152602001604051809103902060040154905060608160405190808252806020026020018201604052801561156757816020015b611554611936565b81526020019060019003908161154c5790505b50905060008090505b8281101561168a576002856040518082805190602001908083835b6020831015156115b0578051825260208201915060208101905060208303925061158b565b6001836020036101000a038019825116818451168082178552505050505050905001915050908152602001604051809103902060030160008281526020019081526020016000206040805190810160405290816000820160009054906101000a900473ffffffffffffffffffffffffffffffffffffffff1673ffffffffffffffffffffffffffffffffffffffff1673ffffffffffffffffffffffffffffffffffffffff168152602001600182015481525050828281518110151561167057fe5b906020019060200201819052508080600101915050611570565b508092505050919050565b60006080604051908101604052803373ffffffffffffffffffffffffffffffffffffffff1681526020016000815260200160008152602001838152506000803373ffffffffffffffffffffffffffffffffffffffff1673ffffffffffffffffffffffffffffffffffffffff16815260200190815260200160002060008201518160000160006101000a81548173ffffffffffffffffffffffffffffffffffffffff021916908373ffffffffffffffffffffffffffffffffffffffff16021790555060208201518160020155604082015181600401556060820151816005015590505060019050919050565b828054600181600116156101000203166002900490600052602060002090601f016020900481019282601f106117c157805160ff19168380011785556117ef565b828001600101855582156117ef579182015b828111156117ee5782518255916020019190600101906117d3565b5b5090506117fc9190611966565b5090565b60c0604051908101604052806060815260200160608152602001600081526020016000815260200160008152602001600081525090565b6040805190810160405280600073ffffffffffffffffffffffffffffffffffffffff168152602001600081525090565b828054600181600116156101000203166002900490600052602060002090601f016020900481019282601f106118a057805485556118dd565b828001600101855582156118dd57600052602060002091601f016020900482015b828111156118dc5782548255916001019190600101906118c1565b5b5090506118ea9190611966565b5090565b50805460018160011615610100020316600290046000825580601f106119145750611933565b601f0160209004906000526020600020908101906119329190611966565b5b50565b6040805190810160405280600073ffffffffffffffffffffffffffffffffffffffff168152602001600081525090565b61198891905b8082111561198457600081600090555060010161196c565b5090565b90565b600061199782356121bf565b905092915050565b60006119ab82356121d1565b905092915050565b600082601f83011215156119c657600080fd5b81356119d96119d4826120da565b6120ad565b915080825260208301602083018583830111156119f557600080fd5b611a008382846121e5565b50505092915050565b600082601f8301121515611a1c57600080fd5b8135611a2f611a2a82612106565b6120ad565b91508082526020830160208301858383011115611a4b57600080fd5b611a568382846121e5565b50505092915050565b600060c08284031215611a7157600080fd5b611a7b60c06120ad565b9050600082013567ffffffffffffffff811115611a9757600080fd5b611aa3848285016119b3565b600083015250602082013567ffffffffffffffff811115611ac357600080fd5b611acf848285016119b3565b6020830152506040611ae38482850161199f565b6040830152506060611af78482850161199f565b6060830152506080611b0b8482850161199f565b60808301525060a0611b1f8482850161199f565b60a08301525092915050565b6000611b3782356121db565b905092915050565b600060208284031215611b5157600080fd5b6000611b5f8482850161198b565b91505092915050565b60008060408385031215611b7b57600080fd5b6000611b898582860161198b565b925050602083013567ffffffffffffffff811115611ba657600080fd5b611bb285828601611a09565b9150509250929050565b60008060408385031215611bcf57600080fd5b6000611bdd8582860161198b565b9250506020611bee85828601611b2b565b9150509250929050565b600060208284031215611c0a57600080fd5b600082013567ffffffffffffffff811115611c2457600080fd5b611c3084828501611a09565b91505092915050565b60008060008060008060c08789031215611c5257600080fd5b600087013567ffffffffffffffff811115611c6c57600080fd5b611c7889828a01611a09565b965050602087013567ffffffffffffffff811115611c9557600080fd5b611ca189828a01611a09565b9550506040611cb289828a0161199f565b9450506060611cc389828a0161199f565b9350506080611cd489828a0161199f565b92505060a0611ce589828a0161199f565b9150509295509295509295565b60008060408385031215611d0557600080fd5b600083013567ffffffffffffffff811115611d1f57600080fd5b611d2b85828601611a09565b925050602083013567ffffffffffffffff811115611d4857600080fd5b611d5485828601611a5f565b9150509250929050565b60008060408385031215611d7157600080fd5b600083013567ffffffffffffffff811115611d8b57600080fd5b611d9785828601611a09565b9250506020611da885828601611b2b565b9150509250929050565b600060208284031215611dc457600080fd5b6000611dd284828501611b2b565b91505092915050565b611de48161216d565b82525050565b6000611df58261213f565b808452602084019350611e0783612132565b60005b82811015611e3957611e1d868351611efe565b611e2682612160565b9150604086019550600181019050611e0a565b50849250505092915050565b611e4e8161217f565b82525050565b611e5d8161218b565b82525050565b6000611e6e82612155565b808452611e828160208601602086016121f4565b611e8b81612227565b602085010191505092915050565b6000611ea48261214a565b808452611eb88160208601602086016121f4565b611ec181612227565b602085010191505092915050565b604082016000820151611ee56000850182611ddb565b506020820151611ef86020850182611fbd565b50505050565b604082016000820151611f146000850182611ddb565b506020820151611f276020850182611fbd565b50505050565b600060c0830160008301518482036000860152611f4a8282611e99565b91505060208301518482036020860152611f648282611e99565b9150506040830151611f796040860182611e54565b506060830151611f8c6060860182611e54565b506080830151611f9f6080860182611e54565b5060a0830151611fb260a0860182611e54565b508091505092915050565b611fc6816121b5565b82525050565b6000608082019050611fe16000830187611ddb565b611fee6020830186611fbd565b611ffb6040830185611fbd565b6120086060830184611fbd565b95945050505050565b6000602082019050818103600083015261202b8184611dea565b905092915050565b60006020820190506120486000830184611e45565b92915050565b600060208201905081810360008301526120688184611e63565b905092915050565b60006040820190506120856000830184611ecf565b92915050565b600060208201905081810360008301526120a58184611f2d565b905092915050565b6000604051905081810181811067ffffffffffffffff821117156120d057600080fd5b8060405250919050565b600067ffffffffffffffff8211156120f157600080fd5b601f19601f8301169050602081019050919050565b600067ffffffffffffffff82111561211d57600080fd5b601f19601f8301169050602081019050919050565b6000602082019050919050565b600081519050919050565b600081519050919050565b600081519050919050565b6000602082019050919050565b600061217882612195565b9050919050565b60008115159050919050565b6000819050919050565b600073ffffffffffffffffffffffffffffffffffffffff82169050919050565b6000819050919050565b60006121ca82612195565b9050919050565b6000819050919050565b6000819050919050565b82818337600083830152505050565b60005b838110156122125780820151818401526020810190506121f7565b83811115612221576000848401525b50505050565b6000601f19601f830116905091905056fea265627a7a72305820491d3b3014f4aca00169c485d6879c1c188497bcd1347286fca162b2d90f0dbf6c6578706572696d656e74616cf50037",
  "source": "pragma solidity ^0.5.0;\r\n\r\n// Enable the ABI v2 Coder\r\npragma experimental ABIEncoderV2;\r\n\r\ncontract carRegistrationContract {\r\n\r\n    struct Registration {\r\n\r\n        string registrationNumber; //licence plate\r\n        string VIN; // Vehichle Identification Number - stelnummer\r\n        int allowedTotalWeight; //in kg\r\n        int fuel; //eg benzin\r\n        int fuelConsumption; //in km/l\r\n        int amountOfSeats;\r\n\r\n    }\r\n\r\n    mapping (address => User) public Users;\r\n    mapping (string => Registration) Registrations;\r\n    mapping (string => SalesPosting) SalesPostings;\r\n\r\n\r\n    function getRegistration(string memory key) public view returns(Registration memory r) {\r\n        return Registrations[key];\r\n    }\r\n\r\n    function setRegistration(string memory key, Registration memory _reg) public {\r\n        Registrations[key] = _reg;\r\n    }\r\n\r\n    function getSalesPostingId(string memory key) public view returns(string memory r) {\r\n        return SalesPostings[key].id;\r\n    }\r\n\r\n    function getSalesPostingOffers(string memory key) internal view returns(mapping (uint=>Offer) memory offers) {\r\n        return SalesPostings[key].offers;\r\n    }\r\n\r\n    function test(string memory key) public view returns(Offer[] memory _offers) {\r\n        uint offerLength = SalesPostings[key].offerLength;\r\n        Offer[] memory o = new Offer[](offerLength);\r\n        for(uint i = 0; i<offerLength; i++) {\r\n            o[i] = SalesPostings[key].offers[i];\r\n        }\r\n        return o;    \r\n    }\r\n\r\n   \r\n\r\n    struct User {\r\n        address userId;\r\n        mapping (uint => Registration) registrations;\r\n        uint registrationsLength;\r\n        mapping (uint => SalesPosting) salesPostings;\r\n        uint salesPostingsLength;\r\n        uint money;\r\n    }\r\n\r\n    struct SalesPosting {\r\n        string id;\r\n        uint sellingPrice;  \r\n        address userId;\r\n        mapping (uint => Offer) offers;\r\n        uint offerLength;       \r\n\r\n    }\r\n\r\n    struct Offer {\r\n        address buyerId;\r\n        uint offerAmount;\r\n    }\r\n\r\n    function getSalesPostingOffer(string memory salesPostingId, uint offerIndex) \r\n        public view returns (Offer memory reg) {\r\n        return SalesPostings[salesPostingId].offers[offerIndex];\r\n    }\r\n\r\n    function getUserRegistration(address user, uint index) public view returns (Registration memory reg) {\r\n        return Users[user].registrations[index];\r\n    }\r\n\r\n    function createRegistration(string memory registrationNumber, string memory VIN, int awt, int fuel, int fc, int ass) public {\r\n        setRegistration(VIN, Registration(registrationNumber, VIN, awt, fuel, fc, ass));         \r\n    }\r\n\r\n    function assignRegistration(address user, string memory _VIN) public {\r\n        User storage u = Users[user];\r\n        u.registrations[u.registrationsLength] = getRegistration(_VIN);\r\n        u.registrationsLength++;\r\n    }\r\n\r\n    function createUser(uint money) public returns (bool success) {\r\n        Users[msg.sender] = User(msg.sender, 0, 0, money);\r\n        return true;\r\n    }\r\n\r\n    function createSalesPost(string memory _registration, uint _sellingPrice) public returns (bool success) {\r\n        User storage user = Users[msg.sender];\r\n        for (uint i = 0; i<user.registrationsLength; i++) {\r\n            string memory vin = user.registrations[i].VIN;\r\n            if(keccak256(bytes(vin)) == keccak256(bytes(_registration))) {\r\n                user.salesPostings[user.salesPostingsLength] = (SalesPosting(_registration, _sellingPrice, msg.sender, 0));\r\n                user.salesPostingsLength++;\r\n                SalesPostings[_registration] = (SalesPosting(_registration, _sellingPrice, msg.sender, 0));\r\n                return true;\r\n            }\r\n        }\r\n        return false;\r\n    }\r\n\r\n    function makeOffer(string memory _salesPosting, uint _offerPrice) public returns (bool sucess) {\r\n        SalesPosting storage posting = SalesPostings[_salesPosting];\r\n        posting.offers[posting.offerLength] = Offer(msg.sender, _offerPrice);\r\n        posting.offerLength++;\r\n        \r\n        return true;\r\n    }\r\n\r\n    //only one offer pr. user pr. salesposting right now \r\n    function acceptOffer(address _buyerId, string memory _salesPosting) public returns (bool success) { \r\n        User storage seller = Users[msg.sender];\r\n        User storage buyer = Users[_buyerId];\r\n        for (uint i = 0; i<seller.registrationsLength; i++) {\r\n            if(keccak256(bytes(seller.registrations[i].VIN)) == keccak256(bytes(_salesPosting))) { //check if sender is owner of registration\r\n                for(uint j = 0; j<seller.salesPostingsLength; j++) {\r\n                    if(keccak256(bytes(seller.salesPostings[j].id)) == keccak256(bytes(_salesPosting))) { //check is sender has registration up for sale\r\n                        for(uint k = 0; k<seller.salesPostings[j].offerLength; k++) {\r\n                            if(seller.salesPostings[i].offers[k].buyerId==_buyerId) { //find the correct offer\r\n                                uint finalPrice = seller.salesPostings[i].offers[k].offerAmount;\r\n                                buyer.money -= finalPrice; //remove money from buyer\r\n                                seller.money += finalPrice; //add money to seller\r\n                                Registration storage registration = seller.registrations[i]; \r\n                                buyer.registrations[buyer.registrationsLength] = registration; //transfer registration to buyer\r\n                                buyer.registrationsLength++;\r\n                                delete seller.registrations[i]; //delete registration for seller\r\n                                delete seller.salesPostings[j]; //delete salesPosting\r\n                                return true;\r\n                            }\r\n                        }\r\n                    }\r\n                }                \r\n            }\r\n        }\r\n        return false;\r\n    }\r\n\r\n\r\n\r\n\r\n}",
  "sourcePath": "C:/AssetManagement/BlockChain and UI/contracts/CarRegistrationContract.sol",
  "compiler": {
    "name": "solc",
    "version": "0.5.0+commit.1d4f565a.Emscripten.clang"
  },
  "schemaVersion": "3.0.2",
  "updatedAt": "2019-02-27T12:14:21.272Z",
  "devdoc": {
    "methods": {}
  },
  "userdoc": {
    "methods": {}
  }
}